:100000000C9446000C9465000C9465000C946500FB
:100010000C9465000C9465000C9465000C946500CC
:100020000C9465000C9465000C9465000C946500BC
:100030000C9465000C94A3000C9465000C9465006E
:100040000C9465000C9465000C9465000C9465009C
:100050000C9465000C9465000C9465000C9465008C
:100060000C9465000C9465000C9465000C9465007C
:100070000C9465000C9465000C9465000C9465006C
:100080000C9465000C9465000C94650011241FBE4F
:10009000CFEFD0E4DEBFCDBF11E0A0E0B1E0E2E5FC
:1000A000F9E000E00BBF02C007900D92A631B10746
:1000B000D9F721E0A6E1B1E001C01D92A632B20756
:1000C000E1F70E94D1020C94A7040C940000CF9396
:1000D000C82F8A3019F48DE00E9467008091C0001B
:1000E00085FFFCCFC093C60080E090E0CF910895DB
:1000F0008BE0809381008DE790E09093890080935E
:10010000880082E080936F00109285001092840036
:100110008091120190911301A0911401B0911501E9
:100120008093180190931901A0931A01B0931B01B9
:100130008FB780688FBF089510928100089581E085
:1001400080931C0108951F920F920FB60F921124F5
:100150000BB60F922F933F934F935F936F937F93C1
:100160008F939F93AF93BF93EF93FF938091180169
:1001700090911901A0911A01B0911B010197A10959
:10018000B1098093180190931901A0931A01B093BB
:100190001B01892B8A2B8B2B91F40E949F0080914D
:1001A000120190911301A0911401B0911501809357
:1001B000180190931901A0931A01B0931B01FF91AC
:1001C000EF91BF91AF919F918F917F916F915F91CF
:1001D0004F913F912F910F900BBE0F900FBE0F903C
:1001E0001F9018956093120170931301809314016E
:1001F00090931501609318017093190180931A016F
:1002000090931B01089580912101909122018130EA
:10021000910559F018F0029779F013C081E090E051
:10022000909322018093210110C082E090E090938E
:1002300022018093210109C0109222011092210114
:1002400004C010922201109221018091210190910D
:1002500022018130910541F018F0029749F008958C
:1002600081E080931701089582E08093170108953B
:1002700084E080931701089580911D0190911E01E3
:10028000009719F0019741F00CC081E090E0909345
:100290001E0180931D0109C010921E0110921D01C4
:1002A00004C010921E0110921D0180911D019091B9
:1002B0001E01009719F0019729F0089588E08093B6
:1002C00016010895109216010895809123019091CE
:1002D0002401009719F0019741F00CC081E090E0F3
:1002E000909324018093230109C01092240110925D
:1002F000230104C010922401109223018091230154
:1003000090912401009719F0019799F00895809138
:100310002501843039F49091170180911601892BC1
:10032000816085B99091170180911601892B85B95B
:1003300008959091170180911601892B85B9089530
:10034000CF92DF92EF92FF9280911F019091200156
:100350008130910509F462C020F0029709F4BBC016
:1003600017C180912501813049F5C0900001D090DE
:100370000101E0900201F090030120E030E040E252
:1003800051E4C701B6010E94BC03882384F420E035
:1003900030E040E85FE3C701B6010E94500360937C
:1003A000000170930101809302019093030181E0A9
:1003B00090E09093200180931F01EEC0823049F5B8
:1003C000C0900001D0900101E0900201F090030183
:1003D00020E030E040E85FE3C701B6010E94A204DC
:1003E000181684F420E030E040E85FE3C701B6016E
:1003F0000E944F03609300017093010180930201FA
:100400009093030182E090E09093200180931F017C
:10041000C3C01092200110921F01BEC0809125011F
:10042000813049F5C0900001D0900101E0900201B7
:10043000F090030120E030E040E251E4C701B60152
:100440000E94BC03882384F420E030E040E85FE3AE
:10045000C701B6010E94500360930001709301012F
:10046000809302019093030181E090E0909320013A
:1004700080931F0191C0823049F5C0900001D09057
:100480000101E0900201F090030120E030E040E83B
:100490005FE3C701B6010E94A204181684F420E0AD
:1004A00030E040E85FE3C701B6010E944F0360936C
:1004B000000170930101809302019093030182E097
:1004C00090E09093200180931F0166C0109220015C
:1004D00010921F0161C080912501813049F5C090C3
:1004E0000001D0900101E0900201F090030120E0B2
:1004F00030E040E251E4C701B6010E94BC0388230A
:1005000084F420E030E040E85FE3C701B6010E94D8
:100510005003609300017093010180930201909356
:10052000030181E090E09093200180931F0134C08B
:10053000823049F5C0900001D0900101E0900201A5
:10054000F090030120E030E040E85FE3C701B6012E
:100550000E94A204181684F420E030E040E85FE333
:10056000C701B6010E944F0360930001709301011F
:10057000809302019093030182E090E09093200128
:1005800080931F0109C01092200110921F0104C026
:100590001092200110921F01FF90EF90DF90CF90FA
:1005A000089511B88FEF82B984B915B86091000130
:1005B0007091010180910201909103010E94C10399
:1005C000EB010E94780062E070E080E090E00E9421
:1005D000F2000F2EF8EE8F2EF3E09F2EA12CB12CFF
:1005E000F02D0F2EFCE2CF2EDD24D394E12CF12C44
:1005F000F02D80B18095809325018CE2C81681E0B2
:10060000D806E104F10428F00E940301C12CD12C8A
:10061000760188EE881683E09806A104B10428F0DC
:100620000E943C01812C912C5401BE0180E090E09D
:100630000E94F003209100013091010140910201DC
:10064000509103010E94A204882324F00E94A0017B
:10065000C0E0D0E00E94650180911C018823E1F395
:1006600010921C01BE0180E090E00E94F0032091F6
:1006700000013091010140910201509103010E945B
:1006800050030E94C103EB0182E0C80ED11CE11CA3
:10069000F11C82E0880E911CA11CB11CAACF5058FD
:1006A000BB27AA270E9467030C9468040E945A047F
:1006B00038F00E94610420F039F49F3F19F426F4C9
:1006C0000C9457040EF4E095E7FB0C945104E92FC9
:1006D0000E94790458F3BA176207730784079507D5
:1006E00020F079F4A6F50C949B040EF4E0950B2E03
:1006F000BA2FA02D0B01B90190010C01CA01A00174
:100700001124FF27591B99F0593F50F4503E68F1CE
:100710001A16F040A22F232F342F4427585FF3CF0F
:10072000469537952795A795F0405395C9F77EF4E0
:100730001F16BA0B620B730B840BBAF09150A1F029
:10074000FF0FBB1F661F771F881FC2F70EC0BA0FAF
:10075000621F731F841F48F4879577956795B79537
:10076000F7959E3F08F0B0CF9395880F08F0992732
:10077000EE0F9795879508950E942D0408F481E067
:1007800008950E94810488F09F5798F0B92F992707
:10079000B751B0F0E1F0660F771F881F991F1AF06C
:1007A000BA95C9F714C0B13091F00E949B04B1E032
:1007B00008950C949B04672F782F8827B85F39F031
:1007C000B93FCCF3869577956795B395D9F73EF405
:1007D00090958095709561957F4F8F4F9F4F0895AD
:1007E000E89409C097FB3EF49095809570956195CB
:1007F0007F4F8F4F9F4F9923A9F0F92F96E9BB2781
:100800009395F695879577956795B795F111F8CFFC
:10081000FAF4BB0F11F460FF1BC06F5F7F4F8F4F67
:100820009F4F16C0882311F096E911C0772321F05D
:100830009EE8872F762F05C0662371F096E8862FF5
:1008400070E060E02AF09A95660F771F881FDAF74C
:10085000880F9695879597F90895990F0008550F79
:10086000AA0BE0E8FEEF16161706E807F907C0F036
:1008700012161306E407F50798F0621B730B840B3E
:10088000950B39F40A2661F0232B242B252B21F418
:1008900008950A2609F4A140A6958FEF811D811DB8
:1008A000089597F99F6780E870E060E008959FEFF2
:1008B00080EC089500240A941616170618060906F7
:1008C000089500240A9412161306140605060895C6
:1008D000092E0394000C11F4882352F0BB0F40F44E
:1008E000BF2B11F460FF04C06F5F7F4F8F4F9F4F8E
:1008F000089557FD9058440F551F59F05F3F71F010
:100900004795880F97FB991F61F09F3F79F0879576
:100910000895121613061406551FF2CF4695F1DFFF
:1009200008C0161617061806991FF1CF869571058F
:10093000610508940895E894BB2766277727CB01C3
:1009400097F908950E942D0408F48FEF0895F89404
:02095000FFCFD7
:1009520000002041000000020000000067000000CB
:060962000000010000008E
:00000001FF
