:100000000C9446000C9465000C9465000C946500FB
:100010000C9465000C9465000C9465000C946500CC
:100020000C9465000C9465000C9465000C946500BC
:100030000C9465000C94A3000C9465000C9465006E
:100040000C9465000C9465000C9465000C9465009C
:100050000C9465000C9465000C9465000C9465008C
:100060000C9465000C9465000C9465000C9465007C
:100070000C9465000C9465000C9465000C9465006C
:100080000C9465000C9465000C94650011241FBE4F
:10009000CFEFD0E4DEBFCDBF11E0A0E0B1E0EAEDEC
:1000A000F4E000E00BBF02C007900D92A231B1074F
:1000B000D9F721E0A2E1B1E001C01D92AC31B20755
:1000C000E1F70E9440020C946B020C940000CF9365
:1000D000C82F8A3019F48DE00E9467008091C0001B
:1000E00085FFFCCFC093C60080E090E0CF910895DB
:1000F0008BE0809381008DE790E09093890080935E
:10010000880082E080936F00109285001092840036
:100110008091000190910101A0910201B091030131
:100120008093130190931401A0931501B0931601CD
:100130008FB780688FBF089510928100089581E085
:100140008093170108951F920F920FB60F921124FA
:100150000BB60F922F933F934F935F936F937F93C1
:100160008F939F93AF93BF93EF93FF93809113016E
:1001700090911401A0911501B09116010197A10968
:10018000B1098093130190931401A0931501B093CA
:100190001601892B8A2B8B2B91F40E949F00809152
:1001A000000190910101A0910201B091030180939F
:1001B000130190931401A0931501B0931601FF91C0
:1001C000EF91BF91AF919F918F917F916F915F91CF
:1001D0004F913F912F910F900BBE0F900FBE0F903C
:1001E0001F901895609300017093010180930201A4
:1001F0009093030160931301709314018093150190
:1002000090931601089540E050E00CC000002F5F6D
:100210003F4F02C020E030E0273063E03607B4F300
:100220004F5F5F4F48175907ACF308959BB19F7B11
:100230009BB988B98BB180688BB900008BB18F777F
:100240008BB982E090E00E940301089581E00E9452
:1002500016010895813120F481580E9416010895F5
:1002600081550E941601089584E690E00E940301E2
:1002700088E30E94160186E00E9416018FE00E942A
:10028000160181E00E9416018AE090E00E940301BD
:1002900008959BB190649BB988B98BB180688BB984
:1002A00000008BB18F778BB981E090E00E94030151
:1002B0000895EF92FF920F931F93CF93DF93182F20
:1002C000EB010E9426010EC001E0010F812F0E9468
:1002D0002A017E018FEFE81AF80A88810E944901FD
:1002E000102FE70188818111EFCFDF91CF911F910E
:1002F0000F91FF90EF90089580911801909119014E
:1003000082309105C9F128F4009759F0019781F0E6
:100310008CC08330910509F451C0049709F470C072
:1003200084C081E090E090931901809318017DC012
:1003300080911B01813039F482E090E090931901A3
:100340008093180172C0823039F483E090E090937A
:1003500019018093180169C0833039F484E090E07A
:10036000909319018093180160C081E090E0909310
:1003700019018093180159C080911B01811107C098
:1003800081E090E090931901809318014EC0833072
:1003900039F484E090E0909319018093180145C0EE
:1003A00082E090E0909319018093180180911201EE
:1003B0008930D8F58F5F8093120137C080911B017F
:1003C000811107C081E090E090931901809318019A
:1003D0002CC0833039F484E090E09093190180932D
:1003E000180123C083E090E09093190180931801D5
:1003F000809112018823C9F081508093120115C0A9
:1004000080911B0181110BC081E090E09093190154
:10041000809318011092120110921A0106C084E014
:1004200090E09093190180931801809118019091A8
:1004300019018230910569F018F4892B39F008957B
:100440008330910591F00497C1F0089510921A013C
:10045000089580911A01893090F4909112019A3098
:1004600070F48F5F80931A01089580911A01882398
:1004700031F0815080931A01089510921A01089565
:1004800011B88FEF82B987B918B88AB91BB8109222
:1004900019011092180168EE73E080E090E00E946C
:1004A000F2000E9478000E94340180911701882395
:1004B000E1F31092170180B180958F7080931B013A
:1004C0000E947C0181E00E942A0180911A01805DD6
:0A04D0000E944901EACFF894FFCF23
:1004DA0001000000000000020000000067000000A8
:0204EA00000010
:00000001FF
