:100000000C945A000C9479000C9479000C947900AB
:100010000C9479000C9479000C9479000C9479007C
:100020000C9479000C9479000C9479000C9479006C
:100030000C9479000C9479000C9479000C9479005C
:100040000C9479000C9479000C9479000C9479004C
:100050000C9479000C9479000C9479000C9479003C
:100060000C9479000C9479000C9479000C9479002C
:100070000C9479000C9479000C9479000C9479001C
:100080000C9479000C9479000C9479009D00A400E4
:10009000B400BB00CB00D200E200E900F90000018F
:1000A0001A011C011E011E0121012101240124014C
:1000B0002701270111241FBECFEFD0E4DEBFCDBF43
:1000C00011E0A0E0B1E0EEE8F2E000E00BBF02C01A
:1000D00007900D92AE30B107D9F721E0AEE0B1E064
:1000E00001C01D92A331B207E1F70E942A010C94CE
:1000F00045010C940000CF93C82F8A3019F48DE08D
:100100000E947B008091C00085FFFCCFC093C60099
:1001100080E090E0CF9108958091120181708093EA
:100120000E01E0910F01F0911001EA30F10508F0A5
:1001300076C0EA5BFF4F0C943C0181E090E0909325
:10014000100180930F016BC0813039F482E090E0A0
:100150009093100180930F0162C081E090E0909332
:10016000100180930F015BC083E090E09093100139
:1001700080930F0154C0813039F484E090E0909373
:10018000100180930F014BC083E090E09093100129
:1001900080930F0144C085E090E09093100180931C
:1001A0000F013DC0813039F486E090E0909310015A
:1001B00080930F0134C085E090E09093100180930C
:1001C0000F012DC087E090E09093100180930F0104
:1001D00026C0813039F488E090E09093100180933C
:1001E0000F011DC087E090E09093100180930F01F4
:1001F00016C089E090E09093100180930F010FC02A
:10020000813039F481E090E09093100180930F01E8
:1002100006C089E090E09093100180930F01E09177
:100220000F01F0911001EA30F10598F4E05BFF4F07
:100230000C943C0118B8089518B808958BEA88B951
:1002400008958DE288B9089585E388B9089585E514
:1002500088B9089511B88FEF82B987B918B810928C
:1002600011011092100110920F0180B180958093BE
:1002700012010E948C00F9CFEE0FFF1F0024001C1A
:0E0280000BBE0790F691E02D0994F894FFCF85
:0E028E0000000002000000007B0000000000E5
:00000001FF
