:100000000C9446000C945D000C945D000C945D0013
:100010000C945D000C945D000C945D000C945D00EC
:100020000C945D000C945D000C945D000C945D00DC
:100030000C945D000C945D000C945D000C945D00CC
:100040000C945D000C945D000C945D000C945D00BC
:100050000C945D000C945D000C945D000C945D00AC
:100060000C945D000C945D000C945D000C945D009C
:100070000C945D000C945D000C945D000C945D008C
:100080000C945D000C945D000C945D0011241FBE67
:10009000CFEFD0E4DEBFCDBF11E0A0E0B1E0E6E1FC
:1000A000F1E000E00BBF02C007900D92AE30B10747
:1000B000D9F70E9474000C9489000C940000CF932F
:1000C000C82F8A3019F48DE00E945F008091C00033
:1000D00085FFFCCFC093C60080E090E0CF910895EB
:1000E00080EE80937A00089511B88FEF82B984B9B9
:1000F00015B88AB91BB80E94700080917800909161
:100100007900803E910510F081E001C080E085B962
:06011000F4CFF894FFCFCC
:0E01160000000002000000005F00000000007A
:00000001FF
