:100000000C9446000C9465000C9465000C946500FB
:100010000C9465000C9465000C9465000C946500CC
:100020000C9465000C9465000C9465000C946500BC
:100030000C9465000C9465000C9465000C946500AC
:100040000C9465000C9465000C9465000C9465009C
:100050000C9465000C9465000C9465000C9465008C
:100060000C9465000C9465000C9465000C9465007C
:100070000C9465000C9465000C9465000C9465006C
:100080000C9465000C9465000C94650011241FBE4F
:10009000CFEFD0E4DEBFCDBF11E0A0E0B1E0E6E8F5
:1000A000F2E000E00BBF02C007900D92AE30B10746
:1000B000D9F711E0AEE0B1E001C01D92A031B10767
:1000C000E1F70E9424010C9441010C940000CF93AD
:1000D000DF9300D01F92CDB7DEB789837B836A831D
:1000E00089818A3031F48A819B81BC018DE00E9434
:1000F000670080EC90E0FC018081882F90E08072A6
:1001000099270097B1F386EC90E02981FC012083C8
:1001100080E090E00F900F900F90DF91CF910895C5
:10012000CF93DF93CDB7DEB780910E0190910F0191
:1001300082309105F9F08230910540F083309105CD
:1001400009F440C08430910549F150C080E290E04C
:10015000FC018081813039F482E090E090930F01BE
:1001600080930E0148C081E090E090930F0180934E
:100170000E0141C080E290E0FC018081813039F4C1
:1001800082E090E090930F0180930E0134C084E0F0
:1001900090E090930F0180930E012DC080E290E0DB
:1001A000FC018081813039F483E090E090930F016D
:1001B00080930E0120C084E090E090930F01809323
:1001C0000E0119C080E290E0FC018081813039F499
:1001D00083E090E090930F0180930E010CC081E0CA
:1001E00090E090930F0180930E0105C010920F01D3
:1001F00010920E01000080910E0190910F0182304B
:10020000910569F08330910520F48130910569F002
:1002100012C08330910549F08430910561F485E284
:1002200090E022E0FC0120830CC085E290E021E018
:10023000FC01208306C085E290E021E0FC012083E0
:100240000000DF91CF910895CF93DF93CDB7DEB754
:1002500081E290E02FEFFC01208382E290E0FC013C
:10026000108284E290E02FEFFC01208385E290E091
:10027000FC01108210920F0110920E010E9490005A
:06028000FDCFF894FFCF52
:0E028600000000020000000067000000000001
:00000001FF
