:100000000C945B000C947A000C947A000C947A00A7
:100010000C947A000C947A000C947A000C947A0078
:100020000C947A000C947A000C947A000C947A0068
:100030000C947A000C94B8000C947A000C947A001A
:100040000C947A000C947A000C947A000C947A0048
:100050000C947A000C947A000C947A000C947A0038
:100060000C947A000C947A000C947A000C947A0028
:100070000C947A000C947A000C947A000C947A0018
:100080000C947A000C947A000C947A00A701AE01CB
:10009000C701F301FA01010208020F0216021D0254
:1000A00024023E02850248024F0256025D026402AB
:1000B0006B027202790211241FBECFEFD0E4DEBFC3
:1000C000CDBF11E0A0E0B1E0EEE8F8E000E00BBF4A
:1000D00002C007900D92AC33B107D9F721E0ACE331
:1000E000B1E001C01D92AA34B207E1F70E94860276
:1000F0000C9445040C940000CF93C82F8A3019F457
:100100008DE00E947C008091C00085FFFCCFC093F1
:10011000C60080E090E0CF9108958BE0809381004D
:100120008DE790E0909389008093880082E080932F
:100130006F00109285001092840080912A019091A6
:100140002B01A0912C01B0912D0180933F01909340
:100150004001A0934101B09342018FB780688FBFE7
:10016000089510928100089581E0809343010895DD
:100170001F920F920FB60F9211240BB60F922F936E
:100180003F934F935F936F937F938F939F93AF931F
:10019000BF93EF93FF9380913F0190914001A09115
:1001A0004101B09142010197A109B10980933F013A
:1001B00090934001A0934101B0934201892B8A2B77
:1001C0008B2B91F40E94B40080912A0190912B0115
:1001D000A0912C01B0912D0180933F01909340019B
:1001E000A0934101B0934201FF91EF91BF91AF9174
:1001F0009F918F917F916F915F914F913F912F913F
:100200000F900BBE0F900FBE0F901F90189560932C
:100210002A0170932B0180932C0190932D01609300
:100220003F017093400180934101909342010895F2
:10023000CF92DF92EF92FF926B017C0160914401BB
:10024000709145018091460190914701A701960167
:100250000E94B102882309F458C020E030E0A901CF
:10026000C701B6010E94B102811106C0E1E9F0E0C8
:1002700080818870808305C0E1E9F0E0808183603F
:10028000808328E539E344E75FE3C701B6010E94B4
:10029000B10288233CF48FEF9FEF909399008093F5
:1002A000980027C020E034E244EF56E4C701B601CD
:1002B0000E94D30318162CF4109299001092980003
:1002C00018C020E030E040E053E4C701B6010E94CE
:1002D000D8039B01AC0160E074E284EF9AE40E94D1
:1002E000B6020E94280361507109709399006093CF
:1002F00098001092950010929400C0924401D09200
:100300004501E0924601F0924701FF90EF90DF90A7
:10031000CF90089580E4809390008BE080939100CB
:1003200060E070E0CB010E941801089510929000E7
:10033000109291000895E0914801F0914901EB304D
:10034000F10508F088C0EA5BFF4F0C94A80281E039
:1003500090E0909349018093480183C080913C01D3
:10036000813071F4E0913D01F0E0EB5EFE4F808161
:10037000082E000C990B909349018093480171C09D
:1003800081E090E090934901809348016AC02091F8
:100390003E01422F50E0E0913D01AE2FB0E0A05071
:1003A000BF4F8C91082E000C990B481759078CF001
:1003B000EF5FE0933D0110923E01F0E0EB5EFE4FF7
:1003C0008081082E000C990B90934901809348017D
:1003D00048C02F5F20933E0182E090E09093490156
:1003E000809348013EC082E090E090934901809361
:1003F000480137C082E090E0909349018093480122
:1004000030C082E090E0909349018093480129C078
:1004100082E090E0909349018093480122C082E0FD
:1004200090E090934901809348011BC082E090E0E6
:10043000909349018093480114C082E090E090932A
:100440004901809348010DC082E090E090934901FA
:100450008093480106C081E090E090934901809329
:100460004801E0914801F09149013197EA30F105E6
:1004700008F046C0EF5AFF4F0C94A80210923D01BD
:1004800010923E0160E070E0CB010E9418010895D7
:1004900064EA70ED82E893E40E94180108956BE726
:1004A00074ED82E993E40E941801089564EA70ED06
:1004B00084EA93E40E941801089561E77DE98EEAD9
:1004C00093E40E941801089560E070E084EC93E4E6
:1004D0000E941801089560E070E08CED93E40E94A2
:1004E0001801089564EA70EF86EF93E40E94180102
:1004F000089560E070ED82E094E40E941801089590
:1005000060E070E0CB010E941801089511B88FEFF0
:1005100082B984B915B86AE070E080E090E00E948A
:1005200007010E948D000E948A01109249011092D9
:10053000480190B181E08927817080933C010E943D
:100540009B01809143018823E1F310924301F1CF95
:10055000EE0FFF1F0024001C0BBE0790F691E02D4C
:1005600009940E945E0308F481E008950E94CA0283
:100570000C9499030E94920358F00E948B0340F060
:1005800029F45F3F29F00C94820351110C94CD03A0
:100590000C9488030E94AA0368F39923B1F35523AE
:1005A00091F3951B550BBB27AA2762177307840786
:1005B00038F09F5F5F4F220F331F441FAA1FA9F31C
:1005C00035D00E2E3AF0E0E832D091505040E6950A
:1005D000001CCAF72BD0FE2F29D0660F771F881F6B
:1005E000BB1F261737074807AB07B0E809F0BB0B5E
:1005F000802DBF01FF2793585F4F3AF09E3F510572
:1006000078F00C9482030C94CD035F3FE4F3983EA2
:10061000D4F3869577956795B795F7959F5FC9F75A
:10062000880F911D9695879597F90895E1E0660FDB
:10063000771F881FBB1F621773078407BA0720F054
:10064000621B730B840BBA0BEE1F88F7E0950895BD
:100650000E942F036894B1110C94CD0308950E9459
:10066000B20388F09F5798F0B92F9927B751B0F08F
:10067000E1F0660F771F881F991F1AF0BA95C9F726
:1006800014C0B13091F00E94CC03B1E008950C94F5
:10069000CC03672F782F8827B85F39F0B93FCCF3A8
:1006A000869577956795B395D9F73EF490958095A3
:1006B000709561957F4F8F4F9F4F0895990F000858
:1006C000550FAA0BE0E8FEEF16161706E807F90724
:1006D000C0F012161306E407F50798F0621B730BBF
:1006E000840B950B39F40A2661F0232B242B252B40
:1006F00021F408950A2609F4A140A6958FEF811DE3
:10070000811D089597F99F6780E870E060E0089583
:100710009FEF80EC089500240A9416161706180619
:100720000906089500240A941216130614060506F5
:100730000895092E0394000C11F4882352F0BB0F86
:1007400040F4BF2B11F460FF04C06F5F7F4F8F4FE9
:100750009F4F089557FD9058440F551F59F05F3F24
:1007600071F04795880F97FB991F61F09F3F79F0D3
:1007700087950895121613061406551FF2CF469555
:10078000F1DF08C0161617061806991FF1CF8695D7
:100790007105610508940895E894BB2766277727BB
:1007A000CB0197F908950E945E0308F48FEF089536
:1007B0000E94EB030C9499030E948B0338F00E9473
:1007C000920320F0952311F00C9482030C9488037B
:1007D00011240C94CD030E94AA0370F3959FC1F3DA
:1007E000950F50E0551F629FF001729FBB27F00DDF
:1007F000B11D639FAA27F00DB11DAA1F649F662734
:10080000B00DA11D661F829F2227B00DA11D621F82
:10081000739FB00DA11D621F839FA00D611D221F3C
:10082000749F3327A00D611D231F849F600D211D20
:10083000822F762F6A2F11249F5750409AF0F1F0A3
:1008400088234AF0EE0FFF1FBB1F661F771F881F0C
:1008500091505040A9F79E3F510580F00C948203BF
:100860000C94CD035F3FE4F3983ED4F386957795DF
:100870006795B795F795E7959F5FC1F7FE2B880FB2
:0E088000911D9695879597F90895F894FFCFEE
:10088E003C3C3C3C3C3C3C3C3C3C3C3C3C3C3C3C9A
:10089E003C3C3C3C3C0304030605030403070603EF
:1008AE000A080605040A08060706010000000000F3
:0C08BE000002000000007C0000000000B0
:00000001FF
