:100000000C944E000C946D000C946D000C946D00DB
:100010000C946D000C946D000C946D000C946D00AC
:100020000C946D000C946D000C946D000C946D009C
:100030000C946D000C946D000C946D000C946D008C
:100040000C946D000C946D000C946D000C946D007C
:100050000C946D000C946D000C946D000C946D006C
:100060000C946D000C946D000C946D000C946D005C
:100070000C946D000C946D000C946D000C946D004C
:100080000C946D000C946D000C946D008C0093002A
:10009000BF00C600E100E80003010A0111241FBEF1
:1000A000CFEFD0E4DEBFCDBF11E0A0E0B1E0EEEBDA
:1000B000F2E000E00BBF02C007900D92AE30B10736
:1000C000D9F721E0AEE0B1E001C01D92A231B20744
:1000D000E1F70E943E010C945D010C940000CF9367
:1000E000C82F8A3019F48DE00E946F008091C00003
:1000F00085FFFCCFC093C60080E090E0CF910895CB
:10010000E0910E01F0910F01E830F10508F093C085
:10011000EA5BFF4F0C94540181E090E090930F0153
:1001200080930E0188C080911101813059F4909123
:100130001001993038F482E090E090930F018093A1
:100140000E0179C0823059F490911001992339F051
:1001500084E090E090930F0180930E016CC0833097
:1001600039F486E090E090930F0180930E0163C014
:1001700081E090E090930F0180930E015CC083E0DA
:1001800090E090930F0180930E0155C08091110172
:10019000811107C081E090E090930F0180930E01E0
:1001A0004AC0833039F486E090E090930F01809349
:1001B0000E0141C083E090E090930F0180930E0107
:1001C0003AC085E090E090930F0180930E0133C018
:1001D00080911101811107C081E090E090930F019F
:1001E00080930E0128C0833039F486E090E090932C
:1001F0000F0180930E011FC085E090E090930F01E6
:1002000080930E0118C087E090E090930F018093D7
:100210000E0111C080911101811107C081E090E0B1
:1002200090930F0180930E0106C087E090E09093B9
:100230000F0180930E0180910E0190910F01823089
:10024000910569F018F4892B39F0089584309105EF
:1002500061F0069781F00895109210010895809141
:1002600010018F5F809310010895809110018150DB
:1002700080931001089510921001089511B88FEF26
:1002800082B987B918B810920F0110920E0110921E
:10029000100180B180958370809311010E948000CD
:1002A0008091100188B9F5CFEE0FFF1F0024001CCC
:0E02B0000BBE0790F691E02D0994F894FFCF55
:0E02BE0000000002000000006F0000000000C1
:00000001FF
