:100000000C948B000C94AA000C94AA000C94AA00E7
:100010000C94AA000C94AA000C94AA000C94AA00B8
:100020000C94AA000C94AA000C94AA000C94AA00A8
:100030000C94AA000C94F9000C94AA000C94AA0049
:100040000C94AA000C94AA000C94AA000C94AA0088
:100050000C94AA000C94AA000C94AA000C94AA0078
:100060000C94AA000C94AA000C94AA000C94AA0068
:100070000C94AA000C94AA000C94AA000C94AA0058
:100080000C94AA000C94AA000C94AA001D024E0223
:100090004E024E024E024E024E024E024E024E02E0
:1000A0004E024E024E024E024E024E024E024E02D0
:1000B0004E024E024E024E024E024E024E024E02C0
:1000C0004E024E024E024E024E024E024E024E02B0
:1000D0004E0248024E024E024E024E024E024E02A6
:1000E00043024E024E024E024E024E0246021F02D2
:1000F000220225022B022E02310237023A023D0271
:100100004E024E024E024E024E024E024E02280295
:10011000340240024B0211241FBECFEFD0E4DEBFF9
:10012000CDBF11E0A0E0B1E0E4E4F6E000E00BBFF9
:1001300002C007900D92A231B107D9F721E0A2E1E8
:10014000B1E001C01D92A432B207E1F70E94800223
:100150000C9420030C940000CF93C82F8A3019F41C
:100160008DE00E94AC008091C00085FFFCCFC09361
:10017000C60080E090E0CF910895609300017093F5
:100180000101809302019093030160931201709327
:100190001301809314019093150108958BE08093CF
:1001A00081008DE790E0909389008093880082E041
:1001B00080936F001092850010928400809100015E
:1001C00090910101A0910201B0910301809312016D
:1001D00090931301A0931401B09315018FB7806819
:1001E0008FBF089510928100089581E080931601D9
:1001F00008951F920F920FB60F9211240BB60F9213
:100200002F933F934F935F936F937F938F939F931E
:10021000AF93BF93EF93FF938091120190911301DD
:10022000A0911401B09115010197A109B109809322
:10023000120190931301A0931401B0931501892B1F
:100240008A2B8B2B91F40E94F500809100019091F4
:100250000101A0910201B0910301809312019093DA
:100260001301A0931401B0931501FF91EF91BF9179
:10027000AF919F918F917F916F915F914F913F913E
:100280002F910F900BBE0F900FBE0F901F901895DF
:10029000442349F021E030E002C0220F331F6A9569
:1002A000E2F7822B089521E030E002C0220F331FD5
:1002B0006A95E2F720958223089521E030E002C09C
:1002C000220F331F6A95E2F78223089540E064E02D
:1002D0008FEF0E94480182B9000080B160E08095F4
:1002E0000E945D01811180C080B161E080950E9413
:1002F0005D0181117BC080B162E080950E945D014B
:10030000811176C080B163E080950E945D0181110A
:1003100071C040E065E08FEF0E94480182B90000A3
:1003200080B160E080950E945D01811165C080B15F
:1003300061E080950E945D01811160C080B162E042
:1003400080950E945D0181115BC080B163E0809562
:100350000E945D01811156C040E066E08FEF0E946F
:10036000480182B9000080B160E080950E945D0183
:1003700081114AC080B161E080950E945D018111C8
:1003800045C080B162E080950E945D01811140C04E
:1003900080B163E080950E945D0181113BC040E027
:1003A00067E08FEF0E94480182B9000080B160E0F1
:1003B00080950E945D0181112FC080B161E0809520
:1003C0000E945D0181112AC080B162E080950E9487
:1003D0005D01811125C080B163E080950E945D01BF
:1003E0008823F9F084E4089581E3089584E308956F
:1003F00087E308958AE2089582E3089585E30895E6
:1004000088E3089580E3089583E3089586E30895DB
:1004100089E3089583E2089581E4089582E40895CC
:1004200083E408950E94660190E085349105B0F55B
:10043000FC01EA5BFF4F0C94170315B831C081E053
:1004400085B92EC082E085B92BC083E085B928C06C
:100450008AE085B925C084E085B922C085E085B9E8
:100460001FC086E085B91CC08BE085B919C087E044
:1004700085B916C088E085B913C089E085B910C078
:100480008CE085B90DC08EE085B90AC015B808C0EA
:100490008FE085B905C08DE085B902C08BE185B9D3
:1004A00080E090E008950F931F93CF93DF93B62FD2
:1004B000A72FF82FE92F022F132FD42FC52F04C0F9
:1004C000062F172FD82FC92F6B2F7A2F8F2F9E2FE4
:1004D000202F312F4D2F5C2F0E94F502B02FA12F1E
:1004E000FD2FEC2F611571058105910549F7602FEE
:1004F000712F8D2F9C2FDF91CF911F910F91089518
:10050000CF93DF9300D0CDB7DEB78FEF84B915B8A6
:1005100080EF81B98FE082B9E7E1F1E0FA83E98306
:10052000108282E390E0A0E0B0E081839283A38315
:10053000B48385839683A783B08782E192E0928714
:10054000818762E370E080E090E00E94BD000E943D
:10055000CE0000E010E03BC0F801EE0FFF1F81E08D
:1005600090E08C0F9D1FE80FF91FE080F180D7010C
:1005700015964D915D916D917C91189711968D9185
:100580009D910D90BC91A02D481759076A077B07D4
:1005900081F4D7011996ED91FC911A978C91082E50
:1005A000000C990B0995F70180831582168217823A
:1005B0001086F70185819681A781B085C296A11D1D
:1005C000B11D85839683A783B0870F5F1F4F0115E9
:1005D000110511F280E090E00E9412028091160154
:1005E0008823E1F310921601B4CFA1E21A2EAA1BC0
:1005F000BB1BFD010DC0AA1FBB1FEE1FFF1FA217D3
:10060000B307E407F50720F0A21BB30BE40BF50BCF
:10061000661F771F881F991F1A9469F76095709558
:10062000809590959B01AC01BD01CF010895EE0F1F
:10063000FF1F0024001C0BBE0790F691E02D0994CB
:04064000F894FFCF5C
:10064400010000000000000200000000AC000000F7
:020654000000A4
:00000001FF
