:100000000C9459000C9478000C9478000C947800AF
:100010000C9478000C9478000C9478000C94780080
:100020000C9478000C9478000C9478000C94780070
:100030000C9478000C94B6000C9478000C94780022
:100040000C9478000C9478000C9478000C94780050
:100050000C9478000C9478000C9478000C94780040
:100060000C9478000C9478000C9478000C94780030
:100070000C9478000C9478000C9478000C94780020
:100080000C9478000C9478000C947800A501AC01D5
:10009000BE01D901FD012102450269028D02B102B2
:1000A000D802DE02E502EC02F302FA0201030803C1
:1000B0000F0311241FBECFEFD0E4DEBFCDBF11E090
:1000C000A0E0B1E0ECEAF9E000E00BBF02C007906D
:1000D0000D92A231B107D9F721E0A2E1B1E001C050
:1000E0001D92AE31B207E1F70E9416030C94D404BE
:1000F0000C940000CF93C82F8A3019F48DE00E9431
:100100007A008091C00085FFFCCFC093C60080E0DC
:1001100090E0CF9108958BE0809381008DE790E08F
:10012000909389008093880082E080936F00109202
:100130008500109284008091000190910101A091AE
:100140000201B09103018093130190931401A093D5
:100150001501B09316018FB780688FBF0895109274
:100160008100089581E08093170108951F920F92F6
:100170000FB60F9211240BB60F922F933F934F930C
:100180005F936F937F938F939F93AF93BF93EF93FF
:10019000FF938091130190911401A0911501B091EA
:1001A00016010197A109B1098093130190931401DD
:1001B000A0931501B0931601892B8A2B8B2B91F4F8
:1001C0000E94B2008091000190910101A091020172
:1001D000B09103018093130190931401A093150132
:1001E000B0931601FF91EF91BF91AF919F918F91C5
:1001F0007F916F915F914F913F912F910F900BBE27
:100200000F900FBE0F901F90189560930001709390
:100210000101809302019093030160931301709395
:10022000140180931501909316010895CF92DF92E7
:10023000EF92FF926B017C0160911801709119019E
:1002400080911A0190911B01A70196010E94400321
:10025000882309F458C020E030E0A901C701B601A5
:100260000E944003811106C0E1E9F0E080818870BE
:10027000808305C0E1E9F0E080818360808328E528
:1002800039E344E75FE3C701B6010E9440038823D6
:100290003CF48FEF9FEF909399008093980027C0D4
:1002A00020E034E244EF56E4C701B6010E94620444
:1002B00018162CF4109299001092980018C020E0A3
:1002C00030E040E053E4C701B6010E9467049B019F
:1002D000AC0160E074E284EF9AE40E9445030E945E
:1002E000B703615071097093990060939800109260
:1002F000950010929400C0921801D0921901E092DA
:100300001A01F0921B01FF90EF90DF90CF900895BB
:1003100080E4809390008BE08093910060E070E037
:10032000CB010E9416010895109290001092910046
:100330000895E0911C01F0911D01EA30F10508F0EB
:100340002AC1EA5BFF4F0C94370381E090E0909361
:100350001D0180931C011FC180911201813039F46D
:1003600082E090E090931D0180931C0114C181E014
:1003700090E090931D0180931C010DC180911201AA
:10038000823039F483E090E090931D0180931C014A
:1003900002C1813039F481E090E090931D01809397
:1003A0001C01F9C082E090E090931D0180931C0134
:1003B000F2C080911201823039F484E090E0909391
:1003C0001D0180931C01E7C0843039F482E090E085
:1003D00090931D0180931C01DEC0813039F481E0CF
:1003E00090E090931D0180931C01D5C083E090E0C4
:1003F00090931D0180931C01CEC080911201823028
:1004000039F485E090E090931D0180931C01C3C0F6
:10041000843039F483E090E090931D0180931C01B7
:10042000BAC0813039F481E090E090931D0180934F
:100430001C01B1C084E090E090931D0180931C01E9
:10044000AAC080911201823039F486E090E0909346
:100450001D0180931C019FC0843039F484E090E03A
:1004600090931D0180931C0196C0813039F481E086
:1004700090E090931D0180931C018DC085E090E079
:1004800090931D0180931C0186C0809112018230DF
:1004900039F487E090E090931D0180931C017BC0AC
:1004A000843039F485E090E090931D0180931C0125
:1004B00072C0813039F481E090E090931D01809307
:1004C0001C0169C086E090E090931D0180931C019F
:1004D00062C080911201823039F488E090E09093FC
:1004E0001D0180931C0157C0843039F486E090E0F0
:1004F00090931D0180931C014EC0813039F481E03E
:1005000090E090931D0180931C0145C087E090E02E
:1005100090931D0180931C013EC080911201823096
:1005200039F489E090E090931D0180931C0133C061
:10053000843039F487E090E090931D0180931C0192
:100540002AC0813039F481E090E090931D018093BE
:100550001C0121C088E090E090931D0180931C0154
:100560001AC080911201843039F488E090E09093B1
:100570001D0180931C010FC0813039F481E090E0AF
:1005800090931D0180931C0106C089E090E0909338
:100590001D0180931C01E0911C01F0911D01319718
:1005A000E930F10508F041C0E05BFF4F0C943703E0
:1005B00060E070E0CB010E941601089564EA70EDDE
:1005C00082E893E40E94160108956BE774ED82E9D6
:1005D00093E40E941601089564EA70ED84EA93E4BE
:1005E0000E941601089561E77DE98EEA93E40E9476
:1005F0001601089560E070E084EC93E40E94160117
:10060000089560E070E08CED93E40E941601089577
:1006100064EA70EF86EF93E40E941601089560E0AB
:1006200070ED82E094E40E941601089511B88FEFF6
:1006300082B984B915B864EF71E080E090E00E945F
:1006400005010E948B000E94880110921D011092EA
:100650001C0180B180958770809312010E949901DE
:10066000809117018823E1F310921701F2CFEE0F6A
:10067000FF1F0024001C0BBE0790F691E02D09948B
:100680000E94ED0308F481E008950E9459030C9440
:1006900028040E94210458F00E941A0440F029F412
:1006A0005F3F29F00C94110451110C945C040C94DC
:1006B00017040E94390468F39923B1F3552391F389
:1006C000951B550BBB27AA2762177307840738F0C1
:1006D0009F5F5F4F220F331F441FAA1FA9F335D01E
:1006E0000E2E3AF0E0E832D091505040E695001CD2
:1006F000CAF72BD0FE2F29D0660F771F881FBB1F8C
:10070000261737074807AB07B0E809F0BB0B802D69
:10071000BF01FF2793585F4F3AF09E3F510578F095
:100720000C9411040C945C045F3FE4F3983ED4F302
:10073000869577956795B795F7959F5FC9F7880F69
:10074000911D9695879597F90895E1E0660F771FBB
:10075000881FBB1F621773078407BA0720F0621B4C
:10076000730B840BBA0BEE1F88F7E09508950E9477
:10077000BE036894B1110C945C0408950E94410476
:1007800088F09F5798F0B92F9927B751B0F0E1F052
:10079000660F771F881F991F1AF0BA95C9F714C002
:1007A000B13091F00E945B04B1E008950C945B04B9
:1007B000672F782F8827B85F39F0B93FCCF386953B
:1007C00077956795B395D9F73EF490958095709598
:1007D00061957F4F8F4F9F4F0895990F0008550FD8
:1007E000AA0BE0E8FEEF16161706E807F907C0F0B7
:1007F00012161306E407F50798F0621B730B840BBF
:10080000950B39F40A2661F0232B242B252B21F498
:1008100008950A2609F4A140A6958FEF811D811D38
:10082000089597F99F6780E870E060E008959FEF72
:1008300080EC089500240A94161617061806090677
:10084000089500240A941216130614060506089546
:10085000092E0394000C11F4882352F0BB0F40F4CE
:10086000BF2B11F460FF04C06F5F7F4F8F4F9F4F0E
:10087000089557FD9058440F551F59F05F3F71F090
:100880004795880F97FB991F61F09F3F79F08795F7
:100890000895121613061406551FF2CF4695F1DF80
:1008A00008C0161617061806991FF1CF8695710510
:1008B000610508940895E894BB2766277727CB0144
:1008C00097F908950E94ED0308F48FEF08950E94B0
:1008D0007A040C9428040E941A0438F00E9421041F
:1008E00020F0952311F00C9411040C94170411249A
:1008F0000C945C040E94390470F3959FC1F3950F2A
:1009000050E0551F629FF001729FBB27F00DB11D93
:10091000639FAA27F00DB11DAA1F649F6627B00D23
:10092000A11D661F829F2227B00DA11D621F739F0C
:10093000B00DA11D621F839FA00D611D221F749F1A
:100940003327A00D611D231F849F600D211D822F61
:10095000762F6A2F11249F5750409AF0F1F0882388
:100960004AF0EE0FFF1FBB1F661F771F881F9150B5
:100970005040A9F79E3F510580F00C9411040C944F
:100980005C045F3FE4F3983ED4F3869577956795D2
:10099000B795F795E7959F5FC1F7FE2B880F911DDF
:0C09A0009695879597F90895F894FFCF7D
:1009AC000100000000000002000000007A000000BE
:0209BC00000039
:00000001FF
