:100000000C9446000C9465000C9465000C946500FB
:100010000C9465000C9465000C9465000C946500CC
:100020000C9465000C9465000C9465000C946500BC
:100030000C9465000C94A3000C9465000C9465006E
:100040000C9465000C9465000C9465000C9465009C
:100050000C9465000C9465000C9465000C9465008C
:100060000C9465000C9465000C9465000C9465007C
:100070000C9465000C9465000C9465000C9465006C
:100080000C9465000C9465000C94650011241FBE4F
:10009000CFEFD0E4DEBFCDBF11E0A0E0B1E0EEE5F0
:1000A000F3E000E00BBF02C007900D92A231B10750
:1000B000D9F721E0A2E1B1E001C01D92AF31B20752
:1000C000E1F70E9495010C94AD010C940000CF93D0
:1000D000C82F8A3019F48DE00E9467008091C0001B
:1000E00085FFFCCFC093C60080E090E0CF910895DB
:1000F0008BE0809381008DE790E09093890080935E
:10010000880082E080936F00109285001092840036
:1001100080910E0190910F01A0911001B0911101F9
:100120008093140190931501A0931601B0931701C9
:100130008FB780688FBF089510928100089581E085
:100140008093180108951F920F920FB60F921124F9
:100150000BB60F922F933F934F935F936F937F93C1
:100160008F939F93AF93BF93EF93FF93809114016D
:1001700090911501A0911601B09117010197A10965
:10018000B1098093140190931501A0931601B093C7
:100190001701892B8A2B8B2B91F40E949F00809151
:1001A0000E0190910F01A0911001B0911101809367
:1001B000140190931501A0931601B0931701FF91BC
:1001C000EF91BF91AF919F918F917F916F915F91CF
:1001D0004F913F912F910F900BBE0F900FBE0F903C
:1001E0001F90189560930E0170930F01809310017A
:1001F000909311016093140170931501809316017F
:1002000090931701089580911B0190911C018130FA
:10021000910559F018F0029779F013C081E090E051
:1002200090931C0180931B0110C082E090E090939A
:100230001C0180931B0109C010921C0110921B012C
:1002400004C010921C0110921B0180911B0190911F
:100250001C018130910541F018F0029749F0089592
:1002600081E080931301089582E080931301089543
:1002700084E08093130108958091190190911A01EF
:10028000009719F0019741F00CC081E090E0909345
:100290001A018093190109C010921A0110921901D4
:1002A00004C010921A0110921901809119019091C5
:1002B0001A01009719F0019729F0089588E08093BA
:1002C0001201089510921201089580911D019091DC
:1002D0001E01009719F0019741F00CC081E090E0F9
:1002E00090931E0180931D0109C010921E0110926F
:1002F0001D0104C010921E0110921D0180911D016C
:1003000090911E01009719F0019741F00895909186
:10031000130180911201892B85B9089590911301E1
:1003200080911201892B85B908958FEF84B915B892
:100330000E94780068EE73E080E090E00E94F20096
:100340000E9403010E943C010E94650180911801F6
:0E0350008823E1F310921801F3CFF894FFCF49
:10035E000000000200000000670000000000010025
:02036E0000008D
:00000001FF
