:100000000C9446000C9465000C9465000C946500FB
:100010000C9465000C9465000C9465000C946500CC
:100020000C9465000C9465000C9465000C946500BC
:100030000C9465000C94A3000C9465000C9465006E
:100040000C9465000C9465000C9465000C9465009C
:100050000C9465000C9465000C9465000C9465008C
:100060000C9465000C9465000C9465000C9465007C
:100070000C9465000C9465000C9465000C9465006C
:100080000C9465000C9465000C94650011241FBE4F
:10009000CFEFD0E4DEBFCDBF11E0A0E0B1E0E0E6FD
:1000A000F2E000E00BBF02C007900D92A631B1074D
:1000B000D9F721E0A6E1B1E001C01D92AD31B20750
:1000C000E1F70E9403010C942E010C940000CF93E1
:1000D000C82F8A3019F48DE00E9467008091C0001B
:1000E00085FFFCCFC093C60080E090E0CF910895DB
:1000F0008BE0809381008DE790E09093890080935E
:10010000880082E080936F00109285001092840036
:100110008091110190911201A0911301B0911401ED
:100120008093180190931901A0931A01B0931B01B9
:100130008FB780688FBF089510928100089581E085
:1001400080931C0108951F920F920FB60F921124F5
:100150000BB60F922F933F934F935F936F937F93C1
:100160008F939F93AF93BF93EF93FF938091180169
:1001700090911901A0911A01B0911B010197A10959
:10018000B1098093180190931901A0931A01B093BB
:100190001B01892B8A2B8B2B91F40E949F0080914D
:1001A000110190911201A0911301B091140180935B
:1001B000180190931901A0931A01B0931B01FF91AC
:1001C000EF91BF91AF919F918F917F916F915F91CF
:1001D0004F913F912F910F900BBE0F900FBE0F903C
:1001E0001F90189560931101709312018093130171
:1001F00090931401609318017093190180931A0170
:1002000090931B0108958FEF87B915B868EE73E0DE
:1002100080E090E00E94F2000E947800E0911601D8
:10022000F0911701E050FF4F808188B980911C0147
:100230008823E1F310921C0180911601909117011F
:100240008230910530F40196909317018093160146
:10025000E5CF1092170110921601E0CFF894FFCF6E
:10026000010204000000020000000067000000001E
:0602700000010000000087
:00000001FF
