:100000000C9446000C9465000C9465000C946500FB
:100010000C9465000C9465000C9465000C946500CC
:100020000C9465000C9465000C9465000C946500BC
:100030000C9465000C94A3000C9465000C9465006E
:100040000C9465000C9465000C9465000C9465009C
:100050000C9465000C9465000C9465000C9465008C
:100060000C9465000C9465000C9465000C9465007C
:100070000C9465000C9465000C9465000C9465006C
:100080000C9465000C9465000C94650011241FBE4F
:10009000CFEFD0E4DEBFCDBF11E0A0E0B1E0E4EAF5
:1000A000F2E000E00BBF02C007900D92A631B1074D
:1000B000D9F721E0A6E1B1E001C01D92AF31B2074E
:1000C000E1F70E9437010C9450010C940000CF938B
:1000D000C82F8A3019F48DE00E9467008091C0001B
:1000E00085FFFCCFC093C60080E090E0CF910895DB
:1000F0008BE0809381008DE790E09093890080935E
:10010000880082E080936F00109285001092840036
:100110008091110190911201A0911301B0911401ED
:100120008093170190931801A0931901B0931A01BD
:100130008FB780688FBF089510928100089581E085
:1001400080931B0108951F920F920FB60F921124F6
:100150000BB60F922F933F934F935F936F937F93C1
:100160008F939F93AF93BF93EF93FF93809117016A
:1001700090911801A0911901B0911A010197A1095C
:10018000B1098093170190931801A0931901B093BE
:100190001A01892B8A2B8B2B91F40E949F0080914E
:1001A000110190911201A0911301B091140180935B
:1001B000170190931801A0931901B0931A01FF91B0
:1001C000EF91BF91AF919F918F917F916F915F91CF
:1001D0004F913F912F910F900BBE0F900FBE0F903C
:1001E0001F90189560931101709312018093130171
:1001F0009093140160931701709318018093190173
:1002000090931A01089580911C0190911D0100970F
:1002100019F0019741F00DC081E090E090931D012D
:1002200080931C0106C081E090E090931D018093B3
:100230001C0180911C0190911D010197B9F4E0917E
:100240001601E23058F4AE2FB0E0A050BF4F8C91B1
:1002500080931E01EF5FE09316010895F0E0E050F7
:10026000FF4F808180931E011092160108958FEF39
:1002700087B918B868EE73E080E090E00E94F20061
:100280000E94780010921E0180911B018823E1F3E7
:1002900010921B010E94030180911E0188B9F4CFC6
:0402A000F894FFCF00
:1002A40001020400000002000000006700000000DA
:0602B40000010000000043
:00000001FF
