:100000000C9446000C9465000C9465000C946500FB
:100010000C9465000C9465000C9465000C946500CC
:100020000C9465000C9465000C9465000C946500BC
:100030000C9465000C94A3000C9465000C9465006E
:100040000C9465000C9465000C9465000C9465009C
:100050000C9465000C9465000C9465000C9465008C
:100060000C9465000C9465000C9465000C9465007C
:100070000C9465000C9465000C9465000C9465006C
:100080000C9465000C9465000C94650011241FBE4F
:10009000CFEFD0E4DEBFCDBF11E0A0E0B1E0E6E0FD
:1000A000F4E000E00BBF02C007900D92A231B1074F
:1000B000D9F721E0A2E1B1E001C01D92AC31B20755
:1000C000E1F70E94DF010C9401020C940000CF9331
:1000D000C82F8A3019F48DE00E9467008091C0001B
:1000E00085FFFCCFC093C60080E090E0CF910895DB
:1000F0008BE0809381008DE790E09093890080935E
:10010000880082E080936F00109285001092840036
:1001100080910E0190910F01A0911001B0911101F9
:100120008093130190931401A0931501B0931601CD
:100130008FB780688FBF089510928100089581E085
:100140008093170108951F920F920FB60F921124FA
:100150000BB60F922F933F934F935F936F937F93C1
:100160008F939F93AF93BF93EF93FF93809113016E
:1001700090911401A0911501B09116010197A10968
:10018000B1098093130190931401A0931501B093CA
:100190001601892B8A2B8B2B91F40E949F00809152
:1001A0000E0190910F01A0911001B0911101809367
:1001B000130190931401A0931501B0931601FF91C0
:1001C000EF91BF91AF919F918F917F916F915F91CF
:1001D0004F913F912F910F900BBE0F900FBE0F903C
:1001E0001F90189560930E0170930F01809310017A
:1001F0009093110160931301709314018093150182
:100200009093160108958091180190911901823000
:100210009105E1F128F4009759F0019799F087C012
:100220008330910509F452C0049709F46FC07FC070
:1002300087E080931A0181E090E090931901809308
:10024000180175C080911B01813039F482E090E083
:1002500090931901809318016AC0823039F483E0C9
:1002600090E0909319018093180161C0833039F4B4
:1002700084E090E0909319018093180158C081E0C8
:1002800090E0909319018093180151C080911B0157
:10029000811107C081E090E09093190180931801CB
:1002A00046C0833039F484E090E090931901809344
:1002B00018013DC082E090E09093190180931801ED
:1002C000809112018F5F8093120131C080911B01D8
:1002D000811107C081E090E090931901809318018B
:1002E00026C0833039F484E090E090931901809324
:1002F00018011DC083E090E09093190180931801CC
:10030000809112018F5F8093120111C080911B01B7
:10031000811107C081E090E090931901809318014A
:1003200006C084E090E090931901809318018091B9
:100330001801909119018230910571F018F4892B00
:1003400039F0089583309105F9F00497A9F10895E3
:1003500087E080931201089590911A01993070F509
:10036000309112018DEC389F812D11248695869550
:100370008695880F282F220F220F820F38131EC058
:100380009F5F90931A01089590911A019923B1F0FB
:10039000309112018DEC389F812D11248695869520
:1003A0008695880F282F220F220F820F381306C040
:1003B000915090931A01089510921A01089511B85E
:1003C0008FEF82B987B918B81092190110921801ED
:1003D00064E670E080E090E00E94F2000E94780005
:1003E000809117018823E1F31092170180B1809565
:1003F0008F7080931B010E94030180911A0188B9BC
:06040000EFCFF894FFCFDE
:10040600000000020000000067000000000001007C
:020416000000E4
:00000001FF
