:100000000C9446000C945D000C945D000C945D0013
:100010000C945D000C945D000C945D000C945D00EC
:100020000C945D000C945D000C945D000C945D00DC
:100030000C945D000C945D000C945D000C945D00CC
:100040000C945D000C945D000C945D000C945D00BC
:100050000C945D000C945D000C945D000C945D00AC
:100060000C945D000C945D000C945D000C945D009C
:100070000C945D000C945D000C945D000C945D008C
:100080000C945D000C945D000C945D0011241FBE67
:10009000CFEFD0E4DEBFCDBF11E0A0E0B1E0ECE5F2
:1000A000F1E000E00BBF02C007900D92AE30B10747
:1000B000D9F70E9474000C94AC000C940000CF930C
:1000C000C82F8A3019F48DE00E945F008091C00033
:1000D00085FFFCCFC093C60080E090E0CF910895EB
:1000E00080EE80937A00089511B88FEF82B984B9B9
:1000F00015B88AB91BB80E94700020917800309121
:1001000079002F3F310509F010F480E001C081E053
:10011000243491E0390708F08260283891E03907EB
:1001200008F084602C3C91E0390708F088602031A9
:1001300092E0390708F08061243592E0390708F031
:100140008062283992E0390708F080642C3D324003
:0C01500008F0806885B9D1CFF894FFCF8B
:0E015C0000000002000000005F000000000034
:00000001FF
