:100000000C9446000C9465000C9465000C946500FB
:100010000C9465000C9465000C9465000C946500CC
:100020000C9465000C9465000C9465000C946500BC
:100030000C9465000C94A3000C9465000C9465006E
:100040000C9465000C9465000C9465000C9465009C
:100050000C9465000C9465000C9465000C9465008C
:100060000C9465000C9465000C9465000C9465007C
:100070000C9465000C9465000C9465000C9465006C
:100080000C9465000C9465000C94650011241FBE4F
:10009000CFEFD0E4DEBFCDBF11E0A0E0B1E0E2E100
:1000A000F4E000E00BBF02C007900D92A631B1074B
:1000B000D9F721E0A6E1B1E001C01D92A332B20759
:1000C000E1F70E94DE010C9407020C940000CF932C
:1000D000C82F8A3019F48DE00E9467008091C0001B
:1000E00085FFFCCFC093C60080E090E0CF910895DB
:1000F0008BE0809381008DE790E09093890080935E
:10010000880082E080936F00109285001092840036
:100110008091110190911201A0911301B0911401ED
:100120008093180190931901A0931A01B0931B01B9
:100130008FB780688FBF089510928100089581E085
:1001400080931C0108951F920F920FB60F921124F5
:100150000BB60F922F933F934F935F936F937F93C1
:100160008F939F93AF93BF93EF93FF938091180169
:1001700090911901A0911A01B0911B010197A10959
:10018000B1098093180190931901A0931A01B093BB
:100190001B01892B8A2B8B2B91F40E949F0080914D
:1001A000110190911201A0911301B091140180935B
:1001B000180190931901A0931A01B0931B01FF91AC
:1001C000EF91BF91AF919F918F917F916F915F91CF
:1001D0004F913F912F910F900BBE0F900FBE0F903C
:1001E0001F90189560931101709312018093130171
:1001F00090931401609318017093190180931A0170
:1002000090931B01089580911D0190911E018230F1
:100210009105B1F128F4009759F0019781F07CC065
:100220008330910509F44DC0049709F45EC074C091
:1002300081E090E090931E0180931D016DC080913C
:10024000210190912201019739F483E090E090938D
:100250001E0180931D0160C08091160190911701CD
:10026000029739F482E090E090931E0180931D0183
:1002700053C081E090E090931E0180931D014CC01B
:100280008091210190912201019739F483E090E05F
:1002900090931E0180931D013FC0809116019091A3
:1002A0001701892B39F481E090E090931E0180932F
:1002B0001D0132C082E090E090931E0180931D01E9
:1002C0002BC08091210190912201019739F483E0A4
:1002D00090E090931E0180931D011EC084E090E089
:1002E00090931E0180931D0117C080912101909170
:1002F0002201019759F4109217011092160181E022
:1003000090E090931E0180931D0106C084E090E070
:1003100090931E0180931D0180911D0190911E01FB
:100320008230910519F118F4019721F0089505978D
:10033000C0F10895809116019091170183309105C5
:10034000E0F5FC01E050FF4F208130E030932001C8
:1003500020931F012091210130912201232B69F567
:1003600001969093170180931601089580911601CC
:1003700090911701009709F1FC01E050FF4F208197
:1003800030E03093200120931F0120912101309112
:100390002201232B91F4019790931701809316016A
:1003A0000895E0911601F0911701E050FF4F808110
:1003B00090E09093200180931F01089511B88FEF72
:1003C00082B987B918B81092200110921F016CE20F
:1003D00071E080E090E00E94F2000E9478001092AC
:1003E000200110921F0180911C018823E1F31092DB
:1003F0001C0190B181E089278170809321011092C6
:1004000022010E94030180911F0188B9ECCFF8946A
:02041000FFCF1C
:10041200010204000000020000000067000000006A
:06042200000100000000D3
:00000001FF
