:100000000C9446000C9465000C9465000C946500FB
:100010000C9465000C9465000C9465000C946500CC
:100020000C9465000C9465000C9465000C946500BC
:100030000C9465000C94A3000C9465000C9465006E
:100040000C9465000C9465000C9465000C9465009C
:100050000C9465000C9465000C9465000C9465008C
:100060000C9465000C9465000C9465000C9465007C
:100070000C9465000C9465000C9465000C9465006C
:100080000C9465000C9465000C94650011241FBE4F
:10009000CFEFD0E4DEBFCDBF11E0A0E0B1E0ECEDEA
:1000A000F5E000E00BBF02C007900D92AE31B10742
:1000B000D9F721E0AEE1B1E001C01D92AD32B20747
:1000C000E1F70E94B3020C94EC020C940000CF9371
:1000D000C82F8A3019F48DE00E9467008091C0001B
:1000E00085FFFCCFC093C60080E090E0CF910895DB
:1000F0008BE0809381008DE790E09093890080935E
:10010000880082E080936F00109285001092840036
:100110008091110190911201A0911301B0911401ED
:100120008093220190932301A0932401B093250191
:100130008FB780688FBF089510928100089581E085
:100140008093260108951F920F920FB60F921124EB
:100150000BB60F922F933F934F935F936F937F93C1
:100160008F939F93AF93BF93EF93FF93809122015F
:1001700090912301A0912401B09125010197A1093B
:10018000B1098093220190932301A0932401B0939D
:100190002501892B8A2B8B2B91F40E949F00809143
:1001A000110190911201A0911301B091140180935B
:1001B000220190932301A0932401B0932501FF9184
:1001C000EF91BF91AF919F918F917F916F915F91CF
:1001D0004F913F912F910F900BBE0F900FBE0F903C
:1001E0001F90189560931101709312018093130171
:1001F0009093140160932201709323018093240152
:1002000090932501089540E050E00CC000002F5F5E
:100210003F4F02C020E030E0273063E03607B4F300
:100220004F5F5F4F48175907ACF308959BB19F7B11
:100230009BB988B98BB180688BB900008BB18F777F
:100240008BB982E090E00E940301089581E00E9452
:1002500016010895813120F481580E9416010895F5
:1002600081550E941601089584E690E00E940301E2
:1002700088E30E94160186E00E9416018FE00E942A
:10028000160181E00E9416018AE090E00E940301BD
:1002900008959BB190649BB988B98BB180688BB984
:1002A00000008BB18F778BB981E090E00E94030151
:1002B0000895EF92FF920F931F93CF93DF93182F20
:1002C000EB010E9426010EC001E0010F812F0E9468
:1002D0002A017E018FEFE81AF80A88810E944901FD
:1002E000102FE70188818111EFCFDF91CF911F910E
:1002F0000F91FF90EF9008958091290190912A012C
:100300008230910509F45AC028F4009759F00197FA
:10031000B1F0D7C08330910509F48FC0049709F478
:10032000ABC0CFC085E090E090931F0180931E0189
:1003300081E090E090932A0180932901C2C08091CE
:100340002B0190912C01019729F58091200190912A
:100350002101019769F480911E0190911F0189305C
:10036000910588F4019690931F0180931E010BC0A4
:1003700080911E0190911F01009729F001979093A1
:100380001F0180931E0183E090E090932A018093E7
:10039000290197C08091200190912101029739F4A1
:1003A00082E090E090932A01809329018AC081E045
:1003B00090E090932A018093290183C080912B01C2
:1003C00090912C01019729F58091200190912101B4
:1003D000019769F480911E0190911F018930910568
:1003E00088F4019690931F0180931E010BC08091A9
:1003F0001E0190911F01009729F0019790931F0112
:1004000080931E0183E090E090932A01809329015C
:1004100058C08091200190912101892B39F481E00D
:1004200090E090932A01809329014BC082E090E0F4
:1004300090932A018093290144C080911E019091DC
:100440001F01099729F465E171E081E00E945901DB
:1004500080912B0190912C01019739F483E090E079
:1004600090932A01809329012CC084E090E090931E
:100470002A018093290125C080912B0190912C01A4
:100480000197C9F480911E0190911F01099741F4D1
:100490000E94260185E090E090931F0180931E0149
:1004A000109221011092200181E090E090932A01A6
:1004B0008093290106C084E090E090932A01809304
:1004C00029018091290190912A018230910519F129
:1004D00018F4019721F008950597C0F108958091CF
:1004E00020019091210183309105E0F5FC01E0505D
:1004F000FF4F208130E03093280120932701209185
:100500002B0130912C01232B69F501969093210149
:1005100080932001089580912001909121010097FE
:1005200009F1FC01E050FF4F208130E030932801B9
:100530002093270120912B0130912C01232B91F442
:10054000019790932101809320010895E09120016B
:10055000F0912101E050FF4F808190E090932801BD
:1005600080932701089511B88FEF82B987B918B821
:100570008AB91BB86CE271E080E090E00E94F20062
:100580000E9478000E9434011092280110922701E5
:10059000809126018823E1F31092260190B181E039
:1005A0008927817080932B0110922C010E947C017D
:1005B000809127018BB980911E0190911F010997AD
:1005C00038F70E94260181E00E942A0180911E01D5
:0C05D000805D0E944901DCCFF894FFCF51
:1005DC00010204000000020000000067000000009F
:0E05EC000001000000596F752057696E000075
:00000001FF
