:100000000C9456000C946D000C946D000C946D00D3
:100010000C946D000C946D000C946D000C946D00AC
:100020000C946D000C946D000C946D000C946D009C
:100030000C946D000C946D000C946D000C946D008C
:100040000C946D000C946D000C946D000C946D007C
:100050000C946D000C946D000C946D000C946D006C
:100060000C946D000C946D000C946D000C946D005C
:100070000C946D000C946D000C946D000C946D004C
:100080000C946D000C946D000C946D0092009E0019
:100090009E009400940096009600980098009800A6
:1000A0009A009A009A009C009C009C0011241FBE9C
:1000B000CFEFD0E4DEBFCDBF11E0A0E0B1E0E8E5D6
:1000C000F1E000E00BBF02C007900D92AE30B10727
:1000D000D9F70E9480000C94AA000C940000CF93E2
:1000E000C82F8A3019F48DE00E946F008091C00003
:1000F00085FFFCCFC093C60080E090E0CF910895CB
:1001000011B88FEF82B987B918B880B1809590B1D6
:1001100090B1E82FEF708E2F90E0FC01EA5BFF4F6B
:100120000C94A10080E40BC080E709C088E307C0FD
:100130008CE305C08EE303C08FE301C080E688B97D
:10014000E4CFEE0FFF1F0024001C0BBE0790F691BA
:08015000E02D0994F894FFCFA3
:0E01580000000002000000006F000000000028
:00000001FF
